:100000000C942A000C9434000C9434000C943400AA
:100010000C9434000C9434000C9434000C94340090
:100020000C9434000C9434000C9434000C94340080
:100030000C9434000C9434000C9434000C94340070
:100040000C9434000C9434000C9434000C94340060
:100050000C94340011241FBECFE5D8E0DEBFCDBF25
:100060000E9436000C944D000C9400008FE08ABB77
:1000700081E08BBB20E137E248EC50E005C0CA01CB
:100080000197F1F72150304021153105C1F78BB3AD
:0E009000880F8BBB20E137E2F2CFF894FFCF50
:00000001FF
